S01000004C454420437562652E73726563A0
S11300000C942A000C9447000C9447000C9447006D
S11300100C9447000C9447000C9447000C94470040
S11300200C9447000C9447000C9447000C94470030
S11300300C9447000C9458000C9447000C9447000F
S11300400C9447000C9447000C9447000C94470010
S11300500C94470011241FBECFE5D8E0DEBFCDBF0E
S113006010E0A0E6B0E0E4E6F4E002C005900D92F2
S1130070A63AB107D9F720E0A6EAB0E001C01D9284
S1130080AE3EB207E1F70E942D010C9430020C94AD
S1130090000090BD89B988E98AB98EE880BD0895C9
S11300A05D9BFECF8CB908955F9BFECF8CB1089504
S11300B01F920F920FB60F9211248F935F9BFECF66
S11300C08CB180936400843441F48091AA0081113E
S11300D010C081E08093AA00579880916400803515
S11300E041F48091AB00811104C081E08093AB00A6
S11300F057988F910F900FBE0F901F90189585E021
S113010080B981B18C7F81B908958FEF8ABB87BB99
S11301108CE184BB0E947F00089534EA50EA44E8ED
S113012036BF06B607FEFDCF21B1287F2830A1F5E2
S113013053B946BF06B607FEFDCF21B1287F28314B
S113014079F793B994E896BF06B607FEFDCF91B14F
S1130150987F983219F583B984E886BF06B607FEFE
S1130160FDCF81B1887F8832D9F463B984E886BF32
S113017006B607FEFDCF81B1887F883299F484E901
S113018086BF06B604FCFDCF8FEB9DE50197F1F722
S113019000C0000081E0089580E0089580E00895A3
S11301A080E0089580E0089534EA50EA44E836BFD8
S11301B006B607FEFDCF21B1287F283009F041C0E3
S11301C053B946BF06B607FEFDCF21B1287F2831BB
S11301D071F793B994E896BF06B607FEFDCF91B1C7
S11301E0987F983281F583B984E886BF06B607FE06
S11301F0FDCF81B1887F883241F584EA86BF06B697
S113020007FEFDCF81B1887F803109F581EA83B98A
S113021084E886BF06B607FEFDCF81B1887F8034AF
S1130220C1F484E886BF06B607FEFDCF81B1887F9E
S1130230883589F483B194E996BF06B604FCFDCFF2
S1130240089580E0089580E0089580E0089580E0B6
S1130250089580E0089580E0089578940E948500D0
S113026083E390E00E94490083E50E9450000F2E32
S1130270FCEAAF2EF0E0BF2EF02D8DEF9FEF1C01B6
S11302802A183B080F2EF5E64F2EF0E05F2EF02DD6
S113029002E010E004191509C1E0D0E0742C652CCB
S11302A08091AB00813009F0C8C00F2EFEEEEF2E16
S11302B0F0E0FF2EF02D65010E945400D6018D93CD
S11302C06D0183E40E945000CE14DF04A9F7F50108
S11302D0C080D12CDC2CCC248181C80ED11C0024FC
S11302E0D694C7940794D694C7940794DC2CC02C56
S11302F00F2EFEEA8F2EF0E09F2EF02DC20CD31CA1
S1130300D4016D914D01C6018A0F9B1F0E948D007F
S1130310E814F904A9F71092AB00579A83E40E94F9
S113032050008BC00E945400F70181937F01EC15AB
S1130330FD05C1F7F201D4018D914D018193CA16D7
S1130340DB06C9F71092AA00579A0F2EF5EAEF2E92
S1130350F0E0FF2EF02D620198012C0D3D1D8091DF
S1130360A6009091A70000249695879507949695EA
S113037087950794982F802D0297820F931F0E94D0
S1130380D400F60181936F01EE15FF0529F78091E2
S1130390600090916100892B69F535C091919BBBF8
S11303A0982F990F990F95BB8F5F8830B9F7CE01BD
S11303B0022E02C0880F991F0A94E2F788BB8FE9C6
S11303C09FE00197F1F700C000002F5F3F4F485FA7
S11303D05F4F2830310519F0FA01862FDFCF7F5F98
S11303E0272F30E080916000909161002817390731
S11303F028F009C070E0B0E0A0E060E0472D562D81
S11304002B2F3A2FE9CF8091A6009091A70020913D
S11304106200309163008217930730F40196909341
S1130420A7008093A6003CCF8091A8009091A900DA
S11304309093A7008093A60033CF8091AA008130C7
S113044009F083CF0F2EFEEA8F2EF0E09F2EF02DC1
S11304500F2EFEEECF2EF0E0DF2EF02D740162CFD2
S1070460F894FFCF3A
S113046401000D0041FF818181818181FF810000B0
S11304740000000081810000000000008181000070
S11304840000000081810000000000008181000060
S113049400000000818100000000000081FF8181D0
S10904A481818181FF004B
S9030000FC
